{
  "_format": "hh-sol-artifact-1",
  "contractName": "Blog",
  "sourceName": "contracts/Blog.sol",
  "abi": [
    {
      "inputs": [
        {
          "internalType": "string",
          "name": "_name",
          "type": "string"
        }
      ],
      "stateMutability": "nonpayable",
      "type": "constructor"
    },
    {
      "anonymous": false,
      "inputs": [
        {
          "indexed": false,
          "internalType": "uint256",
          "name": "id",
          "type": "uint256"
        },
        {
          "indexed": false,
          "internalType": "string",
          "name": "title",
          "type": "string"
        },
        {
          "indexed": false,
          "internalType": "string",
          "name": "hash",
          "type": "string"
        }
      ],
      "name": "PostCreated",
      "type": "event"
    },
    {
      "anonymous": false,
      "inputs": [
        {
          "indexed": false,
          "internalType": "uint256",
          "name": "id",
          "type": "uint256"
        },
        {
          "indexed": false,
          "internalType": "string",
          "name": "title",
          "type": "string"
        },
        {
          "indexed": false,
          "internalType": "string",
          "name": "hash",
          "type": "string"
        },
        {
          "indexed": false,
          "internalType": "bool",
          "name": "published",
          "type": "bool"
        }
      ],
      "name": "PostUpdated",
      "type": "event"
    },
    {
      "inputs": [
        {
          "internalType": "string",
          "name": "title",
          "type": "string"
        },
        {
          "internalType": "string",
          "name": "hash",
          "type": "string"
        }
      ],
      "name": "createPost",
      "outputs": [],
      "stateMutability": "nonpayable",
      "type": "function"
    },
    {
      "inputs": [],
      "name": "fetchAllPost",
      "outputs": [
        {
          "components": [
            {
              "internalType": "uint256",
              "name": "id",
              "type": "uint256"
            },
            {
              "internalType": "string",
              "name": "title",
              "type": "string"
            },
            {
              "internalType": "string",
              "name": "content",
              "type": "string"
            },
            {
              "internalType": "bool",
              "name": "published",
              "type": "bool"
            }
          ],
          "internalType": "struct Blog.Post[]",
          "name": "",
          "type": "tuple[]"
        }
      ],
      "stateMutability": "view",
      "type": "function"
    },
    {
      "inputs": [
        {
          "internalType": "string",
          "name": "hash",
          "type": "string"
        }
      ],
      "name": "fetchPost",
      "outputs": [
        {
          "components": [
            {
              "internalType": "uint256",
              "name": "id",
              "type": "uint256"
            },
            {
              "internalType": "string",
              "name": "title",
              "type": "string"
            },
            {
              "internalType": "string",
              "name": "content",
              "type": "string"
            },
            {
              "internalType": "bool",
              "name": "published",
              "type": "bool"
            }
          ],
          "internalType": "struct Blog.Post",
          "name": "",
          "type": "tuple"
        }
      ],
      "stateMutability": "view",
      "type": "function"
    },
    {
      "inputs": [],
      "name": "name",
      "outputs": [
        {
          "internalType": "string",
          "name": "",
          "type": "string"
        }
      ],
      "stateMutability": "view",
      "type": "function"
    },
    {
      "inputs": [],
      "name": "owner",
      "outputs": [
        {
          "internalType": "address",
          "name": "",
          "type": "address"
        }
      ],
      "stateMutability": "view",
      "type": "function"
    },
    {
      "inputs": [
        {
          "internalType": "address",
          "name": "newOwner",
          "type": "address"
        }
      ],
      "name": "transferOwnership",
      "outputs": [],
      "stateMutability": "nonpayable",
      "type": "function"
    },
    {
      "inputs": [
        {
          "internalType": "string",
          "name": "_name",
          "type": "string"
        }
      ],
      "name": "updateBlogName",
      "outputs": [],
      "stateMutability": "nonpayable",
      "type": "function"
    },
    {
      "inputs": [
        {
          "internalType": "uint256",
          "name": "postId",
          "type": "uint256"
        },
        {
          "internalType": "string",
          "name": "title",
          "type": "string"
        },
        {
          "internalType": "string",
          "name": "hash",
          "type": "string"
        },
        {
          "internalType": "bool",
          "name": "published",
          "type": "bool"
        }
      ],
      "name": "updatePost",
      "outputs": [],
      "stateMutability": "nonpayable",
      "type": "function"
    }
  ],
  "bytecode": "0x60806040523480156200001157600080fd5b506040516200130a3803806200130a8339810160408190526200003491620001c7565b620000806040518060400160405280601981526020017f4465706c6f79696e6720426c6f672077697468206e616d653a0000000000000081525082620000af60201b620009621760201c565b80516200009590600090602084019062000121565b5050600180546001600160a01b0319163317905562000361565b620000fc8282604051602401620000c8929190620002a9565b60408051601f198184030181529190526020810180516001600160e01b03908116634b5c427760e01b179091526200010016565b5050565b80516a636f6e736f6c652e6c6f67602083016000808483855afa5050505050565b8280546200012f906200030e565b90600052602060002090601f0160209004810192826200015357600085556200019e565b82601f106200016e57805160ff19168380011785556200019e565b828001600101855582156200019e579182015b828111156200019e57825182559160200191906001019062000181565b50620001ac929150620001b0565b5090565b5b80821115620001ac5760008155600101620001b1565b600060208284031215620001d9578081fd5b81516001600160401b0380821115620001f0578283fd5b818401915084601f83011262000204578283fd5b8151818111156200021957620002196200034b565b604051601f8201601f19908116603f011681019083821181831017156200024457620002446200034b565b816040528281528760208487010111156200025d578586fd5b62000270836020830160208801620002db565b979650505050505050565b6000815180845262000295816020860160208601620002db565b601f01601f19169290920160200192915050565b604081526000620002be60408301856200027b565b8281036020840152620002d281856200027b565b95945050505050565b60005b83811015620002f8578181015183820152602001620002de565b8381111562000308576000848401525b50505050565b600181811c908216806200032357607f821691505b602082108114156200034557634e487b7160e01b600052602260045260246000fd5b50919050565b634e487b7160e01b600052604160045260246000fd5b610f9980620003716000396000f3fe608060405234801561001057600080fd5b50600436106100885760003560e01c80638b0758281161005b5780638b075828146100f55780638da5cb5b14610108578063cd349fe914610133578063f2fde38b1461014657600080fd5b806306fdde031461008d578063392338f5146100ab5780634086057e146100c057806344828659146100d5575b600080fd5b610095610159565b6040516100a29190610da3565b60405180910390f35b6100be6100b9366004610bc7565b6101e7565b005b6100c8610348565b6040516100a29190610d42565b6100e86100e3366004610b8c565b6105b5565b6040516100a29190610e12565b6100be610103366004610b8c565b610750565b60015461011b906001600160a01b031681565b6040516001600160a01b0390911681526020016100a2565b6100be610141366004610c28565b610767565b6100be610154366004610b5e565b610916565b6000805461016690610ee1565b80601f016020809104026020016040519081016040528092919081815260200182805461019290610ee1565b80156101df5780601f106101b4576101008083540402835291602001916101df565b820191906000526020600020905b8154815290600101906020018083116101c257829003601f168201915b505050505081565b6001546001600160a01b0316331461021a5760405162461bcd60e51b815260040161021190610de4565b60405180910390fd5b610228600280546001019055565b600061023360025490565b600081815260036020908152604090912082815585519293509161025f916001840191908701906109c3565b50825161027590600283019060208601906109c3565b5060038101805460ff191660011790556040518190600490610298908690610d26565b9081526040519081900360200190208154815560018083018054918301916102bf90610ee1565b6102ca929190610a47565b5060028201816002019080546102df90610ee1565b6102ea929190610a47565b506003918201549101805460ff191660ff90921615159190911790556040517fe6851f0b99a9d86e5d68a97f65218980851216ce297f789c6b6b7e82ca1d90c89061033a90849087908790610e25565b60405180910390a150505050565b6060600061035560025490565b90506000808267ffffffffffffffff81111561038157634e487b7160e01b600052604160045260246000fd5b6040519080825280602002602001820160405280156103df57816020015b6103cc60405180608001604052806000815260200160608152602001606081526020016000151581525090565b81526020019060019003908161039f5790505b50905060005b838110156105ad5760006103fa826001610e99565b90506000600360008381526020019081526020016000209050806040518060800160405290816000820154815260200160018201805461043990610ee1565b80601f016020809104026020016040519081016040528092919081815260200182805461046590610ee1565b80156104b25780601f10610487576101008083540402835291602001916104b2565b820191906000526020600020905b81548152906001019060200180831161049557829003601f168201915b505050505081526020016002820180546104cb90610ee1565b80601f01602080910402602001604051908101604052809291908181526020018280546104f790610ee1565b80156105445780601f1061051957610100808354040283529160200191610544565b820191906000526020600020905b81548152906001019060200180831161052757829003601f168201915b50505091835250506003919091015460ff161515602090910152845185908790811061058057634e487b7160e01b600052603260045260246000fd5b6020908102919091010152610596600186610e99565b9450505080806105a590610f1c565b9150506103e5565b509392505050565b6105e260405180608001604052806000815260200160608152602001606081526020016000151581525090565b6004826040516105f29190610d26565b90815260200160405180910390206040518060800160405290816000820154815260200160018201805461062590610ee1565b80601f016020809104026020016040519081016040528092919081815260200182805461065190610ee1565b801561069e5780601f106106735761010080835404028352916020019161069e565b820191906000526020600020905b81548152906001019060200180831161068157829003601f168201915b505050505081526020016002820180546106b790610ee1565b80601f01602080910402602001604051908101604052809291908181526020018280546106e390610ee1565b80156107305780601f1061070557610100808354040283529160200191610730565b820191906000526020600020905b81548152906001019060200180831161071357829003601f168201915b50505091835250506003919091015460ff16151560209091015292915050565b80516107639060009060208401906109c3565b5050565b6001546001600160a01b031633146107915760405162461bcd60e51b815260040161021190610de4565b6000848152600360209081526040909120845190916107b79160018401918701906109c3565b5082516107cd90600283019060208601906109c3565b506003818101805460ff191684151517905560008681526020919091526040902081548155600180830180548493928301919061080990610ee1565b610814929190610a47565b50600282018160020190805461082990610ee1565b610834929190610a47565b506003918201549101805460ff191660ff90921615159190911790556040518190600490610863908690610d26565b90815260405190819003602001902081548155600180830180549183019161088a90610ee1565b610895929190610a47565b5060028201816002019080546108aa90610ee1565b6108b5929190610a47565b506003918201549101805460ff191660ff90921615159190911790556040517f9f8eb93fc073102bbd3072664634ab200707a4f11d94aace9cc8d0e4d019eff590610907908790879087908790610e5a565b60405180910390a15050505050565b6001546001600160a01b031633146109405760405162461bcd60e51b815260040161021190610de4565b600180546001600160a01b0319166001600160a01b0392909216919091179055565b6107638282604051602401610978929190610db6565b60408051601f198184030181529190526020810180516001600160e01b0316634b5c427760e01b17905280516a636f6e736f6c652e6c6f67602083016000808483855afa5050505050565b8280546109cf90610ee1565b90600052602060002090601f0160209004810192826109f15760008555610a37565b82601f10610a0a57805160ff1916838001178555610a37565b82800160010185558215610a37579182015b82811115610a37578251825591602001919060010190610a1c565b50610a43929150610ac2565b5090565b828054610a5390610ee1565b90600052602060002090601f016020900481019282610a755760008555610a37565b82601f10610a865780548555610a37565b82800160010185558215610a3757600052602060002091601f016020900482015b82811115610a37578254825591600101919060010190610aa7565b5b80821115610a435760008155600101610ac3565b600082601f830112610ae7578081fd5b813567ffffffffffffffff80821115610b0257610b02610f4d565b604051601f8301601f19908116603f01168101908282118183101715610b2a57610b2a610f4d565b81604052838152866020858801011115610b42578485fd5b8360208701602083013792830160200193909352509392505050565b600060208284031215610b6f578081fd5b81356001600160a01b0381168114610b85578182fd5b9392505050565b600060208284031215610b9d578081fd5b813567ffffffffffffffff811115610bb3578182fd5b610bbf84828501610ad7565b949350505050565b60008060408385031215610bd9578081fd5b823567ffffffffffffffff80821115610bf0578283fd5b610bfc86838701610ad7565b93506020850135915080821115610c11578283fd5b50610c1e85828601610ad7565b9150509250929050565b60008060008060808587031215610c3d578182fd5b84359350602085013567ffffffffffffffff80821115610c5b578384fd5b610c6788838901610ad7565b94506040870135915080821115610c7c578384fd5b50610c8987828801610ad7565b92505060608501358015158114610c9e578182fd5b939692955090935050565b60008151808452610cc1816020860160208601610eb1565b601f01601f19169290920160200192915050565b805182526000602082015160806020850152610cf46080850182610ca9565b905060408301518482036040860152610d0d8282610ca9565b9150506060830151151560608501528091505092915050565b60008251610d38818460208701610eb1565b9190910192915050565b6000602080830181845280855180835260408601915060408160051b8701019250838701855b82811015610d9657603f19888603018452610d84858351610cd5565b94509285019290850190600101610d68565b5092979650505050505050565b602081526000610b856020830184610ca9565b604081526000610dc96040830185610ca9565b8281036020840152610ddb8185610ca9565b95945050505050565b6020808252601490820152733cb7ba9030b932903737ba1030b71037bbb732b960611b604082015260600190565b602081526000610b856020830184610cd5565b838152606060208201526000610e3e6060830185610ca9565b8281036040840152610e508185610ca9565b9695505050505050565b848152608060208201526000610e736080830186610ca9565b8281036040840152610e858186610ca9565b915050821515606083015295945050505050565b60008219821115610eac57610eac610f37565b500190565b60005b83811015610ecc578181015183820152602001610eb4565b83811115610edb576000848401525b50505050565b600181811c90821680610ef557607f821691505b60208210811415610f1657634e487b7160e01b600052602260045260246000fd5b50919050565b6000600019821415610f3057610f30610f37565b5060010190565b634e487b7160e01b600052601160045260246000fd5b634e487b7160e01b600052604160045260246000fdfea264697066735822122041e8462592bc92bcda102478acb94f3a960e342b19dae1d9dca1ad95468c0c6a64736f6c63430008040033",
  "linkReferences": {},
  "deployedLinkReferences": {}
}